:020000040800F2
:10000000E0080020050200089D08000825060008F9
:1000100099080008010500082F0E000800000000E4
:10002000000000000000000000000000010A0008BD
:10003000050500080000000041090008650B0008E4
:100040001F0200081F0200081F0200081F0200080C
:100050001F0200081F0200081F0200081F020008FC
:100060001F0200081F0200081F0200081F020008EC
:100070001F0200081F0200081F0200081F020008DC
:100080001F0200081F0200081F0200081F020008CC
:100090001F0200081F0200081F0200081F020008BC
:1000A0001F0200081F0200081F0200081F020008AC
:1000B0001F020008C90B00081F0200081F020008E9
:1000C0001F0200081F0200081F0200081F0200088C
:1000D0001F020008490D00081F0200081F02000847
:1000E0001F0200081F0200081F0200081F0200086C
:1000F0001F0200081F0200081F0200081F0200085C
:100100001F0200081F0200081F0200081F0200084B
:100110001F0200081F0200081F0200081F0200083B
:100120001F0200081F0200081F0200081F0200082B
:1001300000F002F800F03CF80AA090E8000C8244BD
:100140008344AAF10107DA4501D100F031F8AFF29A
:10015000090EBAE80F0013F0010F18BFFB1A43F0A5
:10016000010318472C2800004C280000103A24BF37
:1001700078C878C1FAD8520724BF30C830C144BF0C
:1001800004680C607047000000230024002500264E
:10019000103A28BF78C1FBD8520728BF30C148BFEA
:1001A0000B6070471FB500F064F81FBD10B510BD9F
:1001B00000F080F81146FFF7F5FF01F07DFA00F03E
:1001C0009EF803B4FFF7F2FF03BC00F0B9FE000095
:1001D0000B49D1F800C04A685CF8043B1068184429
:1001E00042F8040B8C4528BFA1F1DC0C8A4228BFE1
:1001F000A1F1DC02C1F800C04A6020F00040704765
:10020000740200200948804709480047FEE7FEE7DE
:10021000FEE7FEE7FEE7FEE7FEE7FEE7FEE7FEE7B6
:1002200004480549054A064B70470000690B000861
:1002300031010008E0020020E0080020E004002076
:10024000E0040020704700000B4910B5A1F17C02CA
:100250000A4CC2E93712372106E000EB104342F89E
:100260002130074B00FB03400B1EA1F10101F4DC20
:1002700010BD0120E8E7000014020020E119D66655
:10028000CD0D0100704770477047704710B500F002
:1002900009F8006810BD10B5044600F003F80460CA
:1002A00010BD0000004870477C02002000487047E5
:1002B0007C0200207546FFF7F9FFAE46050069464F
:1002C000534620F00700854618B020B5FFF7A8FF79
:1002D000BDE820404FF000064FF000074FF0000847
:1002E0004FF0000B21F00701AC46ACE8C009ACE8C8
:1002F000C009ACE8C009ACE8C0098D46704710B52C
:100300000446AFF300802046BDE81040FFF759BF18
:1003100010B500F0ABF9002000F0AAF8E5281DD1D7
:100320000B21312000F0CBF80E212C2000F0C7F873
:1003300008212D2000F0C3F880212E2000F0BFF806
:1003400000211E2000F0BBF800211F2000F0B7F8AC
:100350000821202000F0B3F8002010BD0120FCE7A8
:100360002DE9FE4304460D4616461F460020208018
:10037000288030809FB380461DE06A4601A902A80C
:1003800000F02FF82088BDF80810084400B2208043
:100390002888BDF80410084400B228803088BDF8D1
:1003A0000010084400B23080052000F077FF08F10B
:1003B000010000F0FF08B845DFDBB4F9000090FB56
:1003C000F7F000B22080B5F9000090FBF7F000B222
:1003D0002880B6F9000090FBF7F000B23080BDE84D
:1003E000FE832DE9FC4105460E46174600F0CAF98A
:1003F000A62000F099F900F0F1F9322000F094F90C
:1004000000F0ECF900F0BEF9A72000F08DF900F043
:10041000E5F900240EE0052C05D1002000F05AF982
:100420000DF8040004E0012000F054F90DF8040078
:10043000601CC4B2062CEEDB00F0BEF99DF8000093
:100440009DF8011000EB012000B228809DF8020009
:100450009DF8031000EB012000B230809DF80400ED
:100460009DF8051000EB012000B23880BDE8FC814A
:1004700070B50446002500F085F9A62000F054F977
:1004800000F0ACF908B1012070BD204600F04CF935
:1004900000F0A4F908B10220F6E700F073F9A720F4
:1004A00000F042F900F09AF908B10320ECE70020CF
:1004B00000F010F9054600F07FF92846E4E770B532
:1004C00005460C4600F05EF9A62000F02DF900F07C
:1004D00085F908B1012070BD284600F025F900F02B
:1004E0007DF908B10220F6E7204600F01DF900F082
:1004F00075F908B10320EEE700F05EF90020EAE7A5
:1005000000BFFEE770472DE9F041024600250026B6
:10051000002000230024002791F803C00CF00F05F1
:1005200091F803C00CF0100CBCF1000F03D091F84F
:1005300002C04CEA050591F800C0BCF1000F31D0B3
:10054000146800202BE04FF0010C0CFA00F3B1F816
:1005500000C00CEA03069E4220D183004FF00F0C2E
:100560000CFA03F7BC4305FA03FC4CEA040491F8C7
:1005700003C0BCF1280F06D14FF0010C0CFA00FCAF
:10058000C2F814C00AE091F803C0BCF1480F05D1CD
:100590004FF0010C0CFA00FCC2F810C0401C0828F7
:1005A000D1D31460B1F800C0BCF1FF0F34DD546842
:1005B00000202EE000F1080C4FF0010808FA0CF3BF
:1005C000B1F800C00CEA03069E4221D183004FF02F
:1005D0000F0C0CFA03F7BC4305FA03FC4CEA0404C5
:1005E00091F803C0BCF1280F05D100F1080C08FAFE
:1005F0000CF8C2F8148091F803C0BCF1480F07D181
:1006000000F1080C4FF0010808FA0CF8C2F810804D
:10061000401C0828CED35460BDE8F081416170478A
:100620000161704700BFFEE7002001E0411CC8B235
:100630000A28FBDB7047000010B500F069FA2020A3
:1006400009490860FFF7F0FF40200749091F0860CB
:10065000FFF7EAFF402004490860FFF7E5FF20208C
:100660000149091F086010BD1408014008B50121A7
:10067000042000F077F92020ADF8000014208DF858
:10068000030003208DF8020069460648FFF73BFF90
:100690004020ADF8000069460248FFF734FF00F043
:1006A0008BF808BD0008014010B500F031FA202099
:1006B00007490860FFF7B8FF402005490860FFF7C9
:1006C000B3FF40200249091D0860FFF7ADFF10BDD0
:1006D0001008014070B50546002400F007FA002616
:1006E00016E06006040E40200E490860FFF79CFFEC
:1006F0000C480838006800F0200008B1601CC4B243
:1007000040200849091D0860FFF78EFF701CC6B223
:10071000082EE6DB15B9FFF7C7FF01E0FFF78CFFF6
:10072000204670BD1008014070B50446002500F059
:10073000EFF900BF20E004F0800018B1202010493C
:10074000086003E020200E49091D0860FFF76CFFD8
:1007500040200B490860FFF767FF40200849091D4A
:100760000860072D02D12020091F08606006040ED2
:10077000FFF75AFF681CC5B2082DDCDB70BD000016
:100780001008014010B500F0C3F940200949086085
:1007900020200860FFF748FF20200649091D086057
:1007A000FFF742FF40200349091D0860FFF73CFFA7
:1007B00010BD00001008014010B500F0A9F940205C
:1007C000054908602020091D0860FFF72DFF202043
:1007D0000149086010BD00001008014010B5002458
:1007E00000F096F920200C490860FFF71DFF00F08B
:1007F0007DF9402008490860FFF716FF06480838D1
:100800000068C0F3401440200349091D0860FFF749
:100810000BFF204610BD00001008014038B5012133
:10082000402000F09FF84020ADF8000010208DF827
:10083000030003208DF8020069461548FFF763FEA8
:1008400040211348FFF7ECFE01F0E8F800241AE01D
:1008500000220F21204601F0ADF80721204601F0CB
:1008600053F800220921204601F0A4F80021204677
:1008700000F0DAFF204600F0CDFC0021204601F018
:100880007FF8601CC4B2034800688442E0DB38BDD6
:10089000001801403000002000BFFEE77047000054
:1008A00070B5002100230F22C47804B3154C2468CE
:1008B00004F4E064C4F5E064210AC1F10403CA4011
:1008C000447804FA03F184781440214309010E4C62
:1008D0000678A155047804F01F050124AC40057882
:1008E0006D11AD0005F1E025C5F8004109E004787F
:1008F00004F01F050124AC40044D0678761145F83C
:10090000264070BD0CED00E000E400E080E100E076
:1009100000B5014600F0F4FE0844014A106000BD35
:100920003C00002000B500F0EBFE04490968884255
:1009300001D9012000BD0020FCE700003C000020A0
:100940007047000029B1064AD2690243044BDA61BC
:1009500004E0034AD2698243014BDA617047000028
:100960000010024029B1064A92690243044B9A6181
:1009700004E0034A92698243014B9A617047000088
:100980000010024021B1028842F04002028004E0DF
:1009900002884FF6BF731A40028070471AB18388ED
:1009A0000B43838002E083888B4383807047024639
:1009B000002013890B400BB1012000E0002070479C
:1009C0008181704710B50022028802F441520B88E1
:1009D0004C8823438C882343CC8823430C892343AE
:1009E0004C8923438C892343CC8923431A430280B7
:1009F000838B4FF2FF74234083830B8A038210BDE5
:100A0000704710B500F002F810BD00000CB50020D2
:100A1000019000903348006840F48030314908600C
:100A200000BF3048006800F4003000900198401C7E
:100A30000190009818B90198B0F5A06FF1D129483C
:100A4000006800F4003010B10120009001E00020A7
:100A500000900098012843D12348006840F010001E
:100A6000214908600846006820F003000860084635
:100A7000006840F0020008601A4840681949486060
:100A80000846406848600846406840F48060486016
:100A90000846406820F47C1048600846406840F4EE
:100AA000E81048600846006840F08070086000BFA9
:100AB0000C48006800F000700028F9D00948406830
:100AC00020F00300074948600846406840F00200F3
:100AD000486000BF0348406800F00C000828F9D1C6
:100AE0000CBD0000001002400020024008B50121AA
:100AF0000420FFF737FF2020ADF8000048208DF8D4
:100B0000030069460148FFF7FEFC08BD00080140EC
:100B100008B501210420FFF725FF2020ADF80000D3
:100B200003208DF8020014208DF803006946024866
:100B3000FFF7E9FC08BD000000080140042808D1C7
:100B40004FF0E021096941F004014FF0E02211610A
:100B500007E04FF0E021096921F004014FF0E022A5
:100B6000116170477047000010B51348006840F0ED
:100B700001001149086008464068104908400E49C4
:100B80004860084600680E4908400B49086008465E
:100B9000006820F4802008600846406820F4FE00C9
:100BA00048604FF41F008860FFF72BFF4FF0006094
:100BB0000449086010BD0000001002400000FFF86A
:100BC000FFFFF6FE08ED00E010B50121064800F039
:100BD0004EF840B10121044800F03AF8034800689B
:100BE000401C0249086010BD00040040380000208D
:100BF0007FB505460C4601210220FFF7A3FEADF8A4
:100C00000850ADF804400020ADF80A00ADF8060029
:100C100001A90E4800F046F8012211460B4800F0E9
:100C200037F81D208DF8000000208DF8010003200A
:100C30008DF8020001208DF803006846FFF730FEB2
:100C40000121024800F007F87FBD000000040040C9
:100C5000CA430282704721B1028842F00102028039
:100C600004E002884FF6FE731A400280704730B5E8
:100C70000246002000230024158A05EA0103958915
:100C800005EA010413B10CB1012000E0002030BDE1
:100C90001AB183890B43838102E083898B4383816B
:100CA00070470000002202881D4B98420ED01D4B59
:100CB00098420BD0B0F1804F08D01B4B984205D022
:100CC0001A4B984202D01A4B984204D14FF68F73B8
:100CD0001A404B881A43174B984207D0164B98423C
:100CE00004D04FF6FF431A40CB881A4302808B880A
:100CF00083850B8803850A4B98420BD0094B984299
:100D000008D00E4B984205D00D4B984202D00D4BA7
:100D1000984201D10B7A0386012383827047000039
:100D2000002C014000340140000400400008004055
:100D3000000C004000100040001400400040014042
:100D4000004401400048014010B540F225511D48C3
:100D500000F03EF810B31B4800F064F8C4B21A4823
:100D6000008800F40040C8B91748008800F48040AB
:100D700060B10A2C03D000201349088020E01248FB
:100D8000008840F400401049088019E00D2C06D17D
:100D90000D48008840F480400B49088010E00A4864
:100DA0000088C0F30D0009490C5407480088401C16
:100DB0000549088008460088C72801DD0020088012
:100DC00010BD0000003801402C0000204000002031
:100DD00070B50246002400230025002040F66A1664
:100DE000B14200D100BFC1F3421501F01F0301263B
:100DF00006FA03F3012D02D19689334006E0022D55
:100E000002D1168A334001E0968A33400C12012643
:100E100006FA04F41688344013B10CB1012000E046
:100E2000002070BD01468888C0F30800704700BFED
:100E3000FEE7490050EAC12018BF04204A0D18BF40
:100E400040F0010040F2FF72B2EB515F08BF40F08A
:100E50000200012808BF052070472DE9F0414F1E10
:100E600000EBC7010446D1E9000115461E4637F0E4
:100E700006020DD02A46334601F02EF97F1E04EB00
:100E8000C703D3E9002300F007FF37F00602F1D1D2
:100E9000022F25D0042F13D0062F18BFBDE8F081F4
:100EA0002A46334601F018F9D4E90A2300F0F4FE8B
:100EB0002A46334601F010F9D4E9082300F0ECFE8D
:100EC0002A46334601F008F9D4E9062300F0E4FE8F
:100ED0002A46334601F000F9D4E9042300F0DCFE91
:100EE0002A46334601F0F8F8D4E9022300F0D4FE94
:100EF0002A46334601F0F0F8D4E90023BDE8F0417A
:100F000000F0CABE012201F0AFBC0000024A00207E
:100F1000110701F0A9BC000001FDFFFF17B5044651
:100F20002046DDE9011200F0DEFA1EBD7FB5044661
:100F30001D462B462046DDE9011200F0FDFC7FBD79
:100F400000BF70472DE9F84F04460D4621F00040E0
:100F500000917349814211DC7249884201DC06D15B
:100F60002CB120462946BDE8F84FFFF7CBBF6E48AD
:100F7000002DCCBF6D496E49BDE8F88F6D498142A7
:100F800011DD6D498142D8BF4FF0FF366DDD20463F
:100F90002946FFF74EFF042808BFFFF7B7FF20469A
:100FA0002946BDE8F88F6549654F25F00045814227
:100FB00033DD6449814219DD002632464FF080431B
:100FC0002046294600F068FE80468A4601222046D7
:100FD000294601F049FC00223B4601F06DFA4246E9
:100FE000534600F009FF04460D463EE0012600226C
:100FF000BA463B462046294600F04EFE80460F4644
:10100000002253462046294601F056FA42463B4606
:1010100000F0F2FE04460D4627E04B4981421BDDFD
:10102000DFF828A10226002253462046294601F077
:1010300053F800223B4600F02FFE80460F46002268
:1010400053462046294601F037FA42463B4600F017
:10105000D3FE04460D4608E0032622462B46002018
:101060003B4900F0C9FE04460D4622462B46104679
:10107000194601F031F88B46824602460B4601F0D4
:101080002BF807460246334888460B46062178442B
:10109000FFF7E3FE52465B4601F01EF882462E48FB
:1010A0008B463A46434605217844FFF7D6FE3A463A
:1010B000434601F011F802460B46002E50465946B1
:1010C0000CDA00F0E9FD22462B4601F005F801B0EC
:1010D00022462B46BDE8F04F01F0FCB800F0DCFDE5
:1010E00022462B4600F0F8FF1C4A7A4402EBC60366
:1010F000D3E9002301F0E0F922462B4601F0DCF9A8
:10110000174A7A4402EBC603D3E9002301F0E2F860
:10111000009A002AB8BF81F00041BDE8F88F0000B6
:10112000000010440000F07F182D4454FB21F93FCB
:10113000FB21F9BF0000DC3F0000203E0000F33F30
:101140000000F03F0000E63F008003400000F83F51
:101150000000F0BFCE1800008C1800002A18000014
:10116000F21700007CB506460C461546072D01D146
:1011700000207CBD0CB90020FBE72A462146304602
:1011800000F01AF808B90020F3E72A462146304655
:1011900000F028F808B90020EBE72A462146684607
:1011A00000F021F93046DDE90012FFF7B7FE08B97B
:1011B0000120DEE70020DCE77CB505460C4616463C
:1011C0000CB900207CBD32462146684600F066F925
:1011D0002846DDE90012FFF7A1FE08B90120F1E77A
:1011E0000020EFE77CB505460E461446072C01D1DA
:1011F00000207CBD22463146684600F062F9284650
:10120000DDE90012FFF78AFE08B90120F1E70020AE
:10121000EFE7000070B50546002D03DB0C480068C1
:10122000854200DB70BDEE0000240CE00020311987
:10123000084A5054301913461A5C601CC1B2284643
:1012400000F0B8FB641C082CF0DB00BFEAE70000EC
:10125000300000200801002010B56FF00400FFF7F7
:101260006DFC0A4800680A49B0FBF1F009490870B2
:101270000846007800EB4001C1EBC0104FF6FF714B
:1012800001EAC0000449088010BD000010000020E1
:1012900000127A0024000020260000200146114A96
:1012A00012884A434FF0E0235A6100229A611A469D
:1012B000126942F001021A6100BF4FF0E02210698A
:1012C00000F001021AB100F48032002AF5D04FF08C
:1012D000E022126922F001024FF0E0231A6100229D
:1012E0009A6170472600002010B5FFF71BFB70B312
:1012F0004FF47A70FFF70CFB1648006818B11548D8
:101300000068B42824D100221146104600F0CFF81E
:1013100028B100220721012000F0C9F858B10022AD
:101320001146104600F0C3F888B9002207210120B9
:1013300000F0BDF858B100221146104600F0A4F9A3
:1013400000220721012000F09FF9012010BDFFE7D6
:101350000020FBE7000000202DE9F35F8846082607
:101360004FF0000B002424E0B44201DA002001E039
:10137000A01B401CC7B23D4616E0C5F1070000F0B7
:10138000FF0A601B00F0FF090BF101008346404596
:1013900001DC012000E00020034652464946009847
:1013A00000F0CAFA681CC5B2E01BA842E5DA601C6E
:1013B000C4B27000401EA042D6DCBDE8FC9F07B559
:1013C0000199C1F107010191DDE90112C0E90012A3
:1013D0000EBD07B50299C1F107010291DDE90112C5
:1013E000C0E900120EBD1CB54B1E0093531C0193A7
:1013F000DDE90034C0E900341CBD00001CB56946BD
:1014000001A800F091F80F49019801F04BF901D2C1
:1014100000201CBD0C49009801F0C3F901D25A20EC
:10142000F7E70949019801F0BCF901D2B420F0E7CF
:101430000449009801F036F902D24FF48770E8E7CA
:1014400000BFE6E7000034C20000344270B5034636
:10145000002B03DB0F480068834201DB002070BDD6
:10146000002905DB072903DC002A01DB072A01DD4F
:101470000020F4E7DD006818074E305CC2F1070673
:10148000304100F0010080F0010080F001042046AE
:10149000E5E7000030000020080100201CB54B1ECD
:1014A00000930192DDE90034C0E900341CBD70B541
:1014B00006460C461546224629463046FFF7C6FF2B
:1014C00070BD1CB50091531C0193DDE90034C0E9E7
:1014D00000341CBD10B5FFF791FF5A2801D0012040
:1014E00010BD0020FCE77FB504460D461646029568
:1014F00003966846DDE9021200F018FBDDE9000101
:10150000CDE9020144B96846DDE9021200F07FF935
:10151000DDE90001CDE902012046DDE90221FFF706
:1015200095FF04B070BD00002DE9F04F8BB08246EE
:101530008B460A2308AA09A90AA8FEF711FFBDF9DC
:1015400020104943BDF9242002FB021000F0ACFD3D
:10155000064600F0C5FA80468946BDF9280000F02D
:10156000A3FD42464B46CDE9000100F045FC044690
:10157000FFF7E8FC0022204BCDE9020100F0ACFDB2
:101580001E4A1F4BCDE9040100F036FCCDE90601EF
:1015900000F050FBCAF80000BDF928104943BDF91E
:1015A000202002FB021000F07FFD064600F098FAB2
:1015B00004460D46BDF9240000F076FD22462B4678
:1015C000CDE9000100F018FCCDE90201FFF7BAFCFB
:1015D00080460022084B00F07FFD084A084BCDE909
:1015E000040100F009FCCDE9060100F023FBCBF873
:1015F00000000BB0BDE8F08F008066401F85EB5106
:10160000B81E09407CB504460D46164600233246F6
:101610002946204600F090F9324629466846FFF7F1
:10162000E2FE01232046DDE90012FFF77FFC7CBDCE
:101630007CB504460D461646002332462946204610
:1016400000F07AF9324629466846FFF727FF012362
:101650002046DDE90012FFF769FC7CBD7CB504463D
:101660000D461646002332462946204600F064F90E
:10167000324629466846FFF724FF01232046DDE96C
:101680000012FFF753FC7CBD2DE9F04104460D46E6
:101690001646324629462046FFF709FF08B90120C1
:1016A00000E0002007463B4632462946204600F02F
:1016B00017F9BDE8F0810000FFF7CEFDFEF728FE28
:1016C000FFF7ACF800F074F840F2CF216320FFF789
:1016D0008FFA12E0FFF792FE08490860084600689A
:1016E0004FF4B47190FBF1F201FB1204204600F0BC
:1016F00005F900F051FAFFF7F7FDEBE700000020D5
:101700000148006870470000380000202DE9F047CC
:10171000804689469246524649464046FFF7E3FED8
:1017200010B90020BDE8F087524649464046FFF711
:1017300043FD0546524649464046FFF753FD0446E1
:1017400015B90CB90020EDE7524649464046FFF76F
:1017500009FD06462EB1524649464046FFF752FF64
:1017600024E035B12CB9524649464046FFF760FFA8
:101770001CE034B12DB9524649464046FFF76EFF92
:1017800014E0FEF725FD074600EBD7704010A7EBED
:101790004000012805D1524649464046FFF748FF20
:1017A00004E0524649464046FFF758FF0120B9E79A
:1017B00070B5002404E02046FFF72CFD601CC4B285
:1017C000022CF8DBFFF786FE05463C21FFF7C4FD3F
:1017D00070BD17B582B004466846DDE90312FFF715
:1017E000F8FD2046DDE90012FFF7E9FD05B010BD68
:1017F00017B582B004466846DDE9031200F007F829
:101800002046DDE90012FFF7E4FF05B010BD37B553
:101810000446029D0198029001952046DDE90112DF
:10182000FFF7CDFD3EBD000070B505460C46002D0E
:1018300003DB08480068854200DB70BD002C06DB36
:10184000102C04DAE2B20A21284600F0B3F800BFF7
:10185000F3E70000300000202DE9F04706460C4673
:10186000174699464FF00008002E03DB1A4800681F
:10187000864201DBBDE8F087002C05DB072C03DC8A
:10188000002F01DB072F00DDF4E7F500802040FA90
:1018900007F8B9F1000F08D028191049085C40EA90
:1018A000080029190D4A50540BE06FEA080000F0B7
:1018B000FF0828190949085C00EA08002919074AA5
:1018C00050542819054B1A5C601CC1B2304600F018
:1018D00071F800BFCEE700003000002008010020B2
:1018E0002DE9F04106460C4615461F463B4622466A
:1018F00029463046FFF7B0FFBDE8F0810149086096
:10190000704700003400002070B505460C46002DDD
:1019100003DB08480068854200DB70BD002C06DB55
:10192000082C04DAE2B20B21284600F043F800BF8D
:10193000F3E70000300000202DE9FF4104460D468A
:1019400016461F46029503966846DDE9021200F02E
:10195000EDF8DDE90001CDE9020144B96846DDE9B1
:101960000212FFF754FFDDE90001CDE902013B4619
:101970002046DDE90221FFF76FFFBDE8FF8100008F
:1019800070B504460D46002C03DB0948006884420C
:1019900000DB70BD2DB100220C21204600F00AF8BA
:1019A00004E001220C21204600F004F800BFF0E71B
:1019B00030000020F7B505466E0015480068470066
:1019C000002403E0002013490855641CBC42F9DBE5
:1019D0009DF804100F4A701C11549DF80800114620
:1019E000885500BF40210C48FEF718FE00BF3C465A
:1019F00005E0611E074A505C00F05AF8641E002C96
:101A0000F7DC00BF40210448FEF70AFE00BFFEBD20
:101A100030000020880100200018014000B587B088
:101A200001210820FEF79EFF01218803FEF78AFFAF
:101A30004FF46040ADF8180018208DF81B0003200B
:101A40008DF81A0006A91848FEF75DFD0020ADF8D4
:101A500010000220ADF80A000120ADF80C000020B3
:101A6000ADF812004FF40070ADF80E000020ADF894
:101A700008004FF44040ADF804004FF48270ADF818
:101A800006000720ADF8140001A90848FEF79AFFE8
:101A9000012202210548FEF781FF01210348FEF7DC
:101AA00071FF07B000BD0000000C0140003800408D
:101AB00070B50446002505E0681CC5B2C82D01DDDF
:101AC000002070BD02210548FEF771FF0028F3D009
:101AD00021460248FEF774FF00BFF2E700380040DD
:101AE0002DE9F04106460F4600F000FC041E0D46AD
:101AF00018BF0120284320F00040C0F17F6000F1B2
:101B0000E040C00F0ED0301C18BF0120384320F039
:101B10000040C0F17F6000F1E040C00F04BF012031
:101B2000FEF7B9FB20462946BDE8F08117B582B023
:101B30000446184800685A2809D16846DDE90312AE
:101B4000FFF765FEDDE90001CDE903011BE0114867
:101B50000068B42809D16846DDE90312FFF739FEB1
:101B6000DDE90001CDE903010DE00A480068B0F5A8
:101B7000877F08D16846DDE90312FFF739FEDDE90A
:101B80000001CDE90301DDE90301C4E9000105B06D
:101B900010BD0000340000202DE9F84F0826002079
:101BA000009000243FE0FEF713FB834600EBDB7060
:101BB0004010ABEB4000012800D100E0002082463D
:101BC000B44201DA002001E0A01B401CC7B23D4630
:101BD00024E0BAF1000F02D0C5F1070002E0601B5B
:101BE000C0F1070000F0FF09BAF1000F01D0601B3F
:101BF00000E0284600F0FF084A4641460120FFF772
:101C000085FD08B1012000904A4641460020FFF7BB
:101C10007DFD08B101200090681CC5B2E01BA84200
:101C2000D7DA601CC4B27000401EA042BBDC009832
:101C3000BDE8F88F21F00042A2F16052B2F5801F9A
:101C400001F0004328BFD2F17F6C0BD95FEA001C82
:101C500043EAC20242EB507018BF704728BF20F021
:101C600001007047B2F5801FBCBF184670474FEAAD
:101C7000410C1CF5001F02D2084600F08DBD70B566
:101C800000F0D4FA00000089FFF7F6BF4FF00040E3
:101C9000A0F580007047000010B591EA030F48BF1F
:101CA00083F0004300F11084841A71EB030C05D219
:101CB000121943EB0C03001B61EB0C01DFF824E16C
:101CC0004FEA1154A4EB135C1EEA430F18BF9EEABF
:101CD000445F73D023EA0E03DCF1200E21EA0451A5
:101CE00043F4801332D322FA0CFE10EB0E0023FAD9
:101CF0000CFE41EB0E01CCF1200E03FA0EFE10EBB0
:101D00000E0051F10001B1F5801FCCF1200E32D24E
:101D100001EB045112FA0EF2BDE8104058BF7047B3
:101D2000401C38BF5FEA420218BF7047002814BF4A
:101D300020F0010041F100014FEA410313F5001FBB
:101D400038BF7047A1F1C04100F0BEBA012A43EB91
:101D50000302ACF1200CDCF11F0E32BF4FF0000E7D
:101D600023FA0CF310EB030041EB0451B4EB115FC9
:101D7000D0D0A1EB045101F5801149085FEA300091
:101D800001EB04510ED350F1000038BF12FA0EFEE1
:101D900008D1BDE81040C9E7401C38BF5FEA4202E5
:101DA000CAD1C3E7BDE810404FEA410313F5001F55
:101DB00038BF7047A1F1C04100F086BA9EEA445F87
:101DC00008D011EA5E0FBDE8104004BF01F00041E9
:101DD00000207047BDE8104070B500F027FA00BF42
:101DE00064FBBE3E0000E0FF02494FF0000000F03F
:101DF00009BD00BF0000F87F2DE9C04130B4DFF815
:101E0000A0C23CEA111418BF3CEA131400F0EC80A5
:101E100081EA03051CEA111444EAD57418BF1CEAD0
:101E2000131500F0C780A4EB05044FF0004545EA08
:101E3000C12145EAC32341EA505143EA525304F118
:101E40007F74994204F500344FEAC0204FEAC22261
:101E500008BF904200F09C804FEA13650FF24016D5
:101E6000765D4FEA134506FB05F7C7F1807706FB61
:101E700007F74FEAD737A7FB03687642C8F58038E3
:101E8000A7FB06CE38BFA8F1010807FB08E64FF014
:101E9000000EA6FB028CE6FB03CEDCF1000CCEF1BB
:101EA000004E38BFAEF1010EA6FB0C584FF00007F4
:101EB0004FF00005E6FB0E87A1FB08C6A0FB07CE8E
:101EC00016EB0E0645F10005E1FB076515F1E04E46
:101ED0007EBFA4F580345FEA46066D4116F18007A7
:101EE00045F100054FEA17274FEA066647EA0567FE
:101EF000A6F1DE46B6F1805F4FEA15251FD93846B8
:101F000024F0010C05EBC471BCF1FE6F01EB0C1168
:101F100002D8F0BCBDE8008124425CBF01F5801E00
:101F20009EEAC47F02D4F0BCBDE80081244238D4CC
:101F3000F0BCA1F1C041BDE8004100F0C5B94FEAD5
:101F4000D22242EA43524FEAD323A7FB02864FEA4A
:101F5000D02040EA415007FB03661EEA0E0F4FEA0D
:101F6000D12105FB026658BFA6EB0056B6EB005622
:101F70004FEA520E4EEAC37E18EB0E0E56EB530E8E
:101F8000BDD518EB02085E417F1C55F10005B6E790
:101F90004FF480154FF000074FF000064FF0000897
:101FA000ADE7F0BC4FF0000001F1C04101F000418D
:101FB000BDE8008111EA0C1F0CEA131500D00CE0FB
:101FC00013EA0C1F00F025804FF00000F0BC81EAFE
:101FD000030101F00041BDE80081F0BCBDE8004113
:101FE00081EA030100F070B9F0BCBDE8004170B5B2
:101FF00000F01CF9097EFC3E00F007B881EA0301FD
:102000004FF0000001F00041704781EA030100F049
:102010005BB9F0BCBDE800414FF0000021497047BA
:10202000FFFDFBF9F7F5F4F2F0EEEDEBE9E8E6E49D
:10203000E3E1E0DEDDDBDAD8D7D5D4D3D1D0CFCD24
:10204000CCCBCAC8C7C6C5C4C2C1C0BFBEBDBCBB5D
:10205000BAB9B8B7B6B5B4B3B2B1B0AFAEADACAB58
:10206000AAA9A8A8A7A6A5A4A3A3A2A1A09F9F9E32
:102070009D9C9C9B9A9999989797969595949393E4
:10208000929191908F8F8E8E8D8C8C8B8B8A89897B
:1020900088888787868585848483838282818180FE
:1020A0000000FF070000F87F10F0004248BF4042E8
:1020B000B0FA80F310FA03F10AD0C3F11D0303F55F
:1020C00080634FEA415002EB035202EBD12170478B
:1020D0004FF0000070470000DFF848C170B51CEAFF
:1020E000111E1EBF1CEA13159EEA0C0F95EA0C0F79
:1020F00000F06F8081EA030423EA4C134EEAD47E99
:1021000021EA4C1141F4801143F48013AE44A1FB49
:10211000024CA0FB0365AEF17F7E361955EB0C0532
:10212000A1FB034C4CF10003A0FB021C16EB0C06B8
:10213000654153F10003094218BF46F0010613F44C
:10214000007F0BD14FEA03314FEA0530340341EAF7
:10215000155140EA16506FF003020AE04FEAC3211E
:102160004FEAC520F40241EA555140EA56506FF05B
:10217000020202EB2E4201EB025585EACE710AD033
:102180005FEA440C18BF24F0004450F1000041F114
:10219000000120EAD47040F2FE7C624500D270BD9E
:1021A000A84214BF4FF080444FF04044002E08BFB7
:1021B0000024BEF1806FA8BFA1F1C041BDE870400E
:1021C00080F282804FF0000001F1C04101F0004137
:1021D00070479EEA0C0F0CEA131518BF95EA0C0F16
:1021E00006D04FF0000081EA030E0EF0004170BDF2
:1021F00000F01CF88900013E00F007B800F009B8B3
:102200004FEA430C5FEA5C5C08D081EA030100F00E
:102210005BB84FEA410C5FEA5C5CF6D14FF000001E
:10222000014970470000FF070000F87F0EF1020E21
:102230002EF0030E5EF8046B364205D4012A43EB00
:10224000030515F5001F12D8012841EB010C1CF500
:10225000001F0CD80ED14FEAD17C15F5001F0CEBF6
:102260004C0C0CF1020C08BF4CEBD37C04E04FF09B
:10227000080C01E04FEAD37C0CEB4C0526FA05F67E
:1022800006F00706B6F1040C06D20EEB860CBDE88C
:1022900070404CF0010C6047DFE80CF0090B0202C3
:1022A0004FF000414FF00000A1F5002170BD19462C
:1022B0001046012851EB010418BFD4F5001484BF67
:1022C000002001F0004170BD0808A0F500114FEAA0
:1022D0003101704791EA030F10B581F000413FF5DD
:1022E000E3AC83F0004300F0EFB800002DE9F041CB
:1022F00001F5801CBCF5001FC0F2C3804FEA115CE1
:1023000021EA0C510CF1FD0C41F480115FEA5C0CE8
:102310000CF5C07C01D3400049413DA4890241EA4B
:10232000905187028E0E0A0CA45D04FB04F602FB9A
:1023300006F6C6F14046A4FB0662F60D46EA4226C2
:1023400006FB06F4A4FB01235242C3F1404338BF0D
:102350005B1EA6FB02420024E6FB0324D20B42EAEA
:102360004446A6FB0623A1FB02E2A3FB07E4A41854
:102370004FF0000252F10002E3FB01426442C2F15D
:10238000404E38BFAEF1010EA6FB04234FF0000211
:10239000E6FB0E32A2FB03464FF00004B61954F1DF
:1023A0000004E2FB0264A1FB06E6A4FB07E816EBCF
:1023B00008064FF0000858F10008E4FB0168764277
:1023C000C8F1405838BFA8F10108A2FB06E4A3FBFE
:1023D00008E52D194FF0000454F10004E2FB085405
:1023E000A1FB05E6A7FB04E818EB06084FF0000682
:1023F00056F10006E1FB048618F1200556F10006AF
:10240000A809A8F11B08B10908F03F08B8F10A0FA4
:1024100040EA86601CD901EB0C51BDE8F08100BF99
:10242000FCF5EEE8E2DDD8D3CFCBC7C3C0BDB9B66B
:10243000B4B1AEACA9A7A5A3A19F9D9B9A98969570
:102440009392908F8D8C8B898887868584838281F7
:10245000A0FB006800FB01F208EB4208B8EB8728FC
:1024600007D5341858EB0104D5D5401C51F10001B3
:10247000D1E7341A78EB0104CDD4401E71F100018C
:10248000C9E75FEA4C0C5FEA9C5C0DD105D34FF0C5
:10249000000001F00041BDE8F081BDE8F04170B5F9
:1024A000FFF7C4FE6DDBFFBEBDE8F0414FF000005A
:1024B000004970470000F87F10B591EA030F48BF4C
:1024C00083F000433FF5F0AB841A71EB030C07D2A5
:1024D00012198CF0004C43EB0C03001B61EB0C0158
:1024E000DFF8A4E14FEA1154A4EB135C1EEA430F9A
:1024F00018BF9EEA445F00F0B08023EA6E035242A8
:1025000021EA0451C3EB6E0338BF5B1EDCF1200EE1
:1025100025D322FA0CFE10EB0E0043FA0CFE41EB21
:102520000E01CCF1200E03FA0EFE10EB0E0051F15D
:102530000001CCF1200E29D412FA0EF201EB045165
:10254000BDE8104058BF7047401C1CBFB2F1004F9F
:10255000704700280CBF491C20F00100704712EBA7
:10256000020E43EB030218BF4FF0010E4EEA420287
:10257000ACF1200CDCF11E0E54D943FA0CFE10EB2A
:102580000E0051F1FF31CCF11E0ED5D50EF1010E2A
:1025900012FA0EFE404141EB010101EB445C5FEA9F
:1025A0005C5C10D910EBDE7001EB045138BFBEF15A
:1025B000004FBDE8104018BF704700280CBF491CF1
:1025C00020F00100704730D24FEAD42C11F50011F1
:1025D00024F400641BD0B1FA81F20B3AA41AA41EB1
:1025E000D2F12003914030FA03F31943904001EBFC
:1025F000CC71002C01EB0451BDE81040A8BF70471E
:1026000001F1C0414FF0000001F000417047B0FA05
:1026100080F310FA03F100D110BDE41A173C48050D
:10262000C90AE4E701EB045110BD491001EB045164
:10263000BDE810404FEA300002E04FF00001704763
:102640004A0008BF0042F8D0B2F5001F28BF70470B
:1026500001F000414FF0000070479EEA445F07D050
:1026600011EA5E0FBDE8104004BF00210020704752
:10267000BDE8104070B5FFF7D9FD00BF40DFF63E62
:1026800083F00041104670470000E0FF401058BF43
:10269000C0F14040491058BFC1F140418142EFF3C1
:1026A0000080704750EA010C00F113801CF5000F08
:1026B00058BFBCF5000F01D48842704707D710F50A
:1026C000000F58BF11F5000F15D48842704789429A
:1026D00070471CF5000F04D5BCF5000FF7D58142FB
:1026E00070474FF0807C1CEB400F38BF1CEB410F54
:1026F00001D28142704710B500F008F892244900D9
:102700004FF000504FF08051FFF7C0BF0EF1020EA6
:102710002EF0030E5EF8044B244204D44FEA41022B
:10272000B2F17F4F11D84FEA4003B3F17F4F0CD87D
:102730000ED14FEAD07CB2F17F4F0CEB4C0C0CF178
:10274000020C08BF4CEBD17C04E04FF0080C01E018
:102750004FEAD17C0CEB4C0324FA03F404F0070499
:10276000B4F1040C06D20EEB840CBDE810404CF022
:10277000010C6047DFE80CF0070802024FF0004050
:10278000A0F5800010BD0846420018BFD2F180724B
:1027900088BF00F0004010BDFF2141EAD050C005C5
:1027A000704751EA000C00F113801CF5000F58BF70
:1027B000BCF5000F01D48142704707D711F5000F17
:1027C00058BF10F5000F15D48142704789427047F9
:1027D0001CF5000F04D5BCF5000FF7D588427047F3
:1027E0004FF0807C1CEB410F38BF1CEB400F01D237
:1027F0008842704780EA010081EA000180EA010016
:10280000FFF779BF0CF00F03092B08BF082000F079
:1028100059800A2B0BD0082B18BF704708BF1CF03B
:10282000400F0AD04FF000004FF0000170471CF03D
:10283000400F18BF4FF0004070471CF0100F08D039
:1028400020F0704300F07F4242EAD3014FEA437028
:10285000704700F0604021F07F4242EA000201F040
:102860007F4040EA727070474FF0FF0C4CF4E06C10
:102870001CEA11531CBF9CEA030C9445C2BFDA4208
:1028800001EB02517047002B0DD0BCF1000F0FD0AF
:10289000002A01F00041A4BF41F0E04141F07F6116
:1028A0004FF00000704701F000414FF0000070470A
:1028B00050EA01334FF09B0C18BF4CF0806C7FF452
:1028C00093AA70471CF4801F11D01CF4E02F03D092
:1028D0006FEACC31490070474FF04050EFF300826F
:1028E00022F0704242EA000282F3008870474FF003
:1028F00000007047000000004FBB610567ACDD3F82
:10290000182D4454FB21E93F9BF681D20B73EF3F16
:10291000182D4454FB21F93FE2652F227F2B7A3C8E
:10292000075C143326A6813CBDCBF07A8807703C47
:10293000075C143326A6913CC4EB98999999C9BFBA
:10294000711623FEC671BCBF6D9A74AFF2B0B3BFEF
:102950009AFDDE522DDEADBF2F6C6A2C44B4A2BFAF
:102960000D5555555555D53FFF8300922449C23F1B
:102970006E204CC5CD45B73F513DD0A0660DB13F4F
:10298000EB0D76244B7BA93F11DA22E33AAD903F61
:10299000B029000800000020400000006C01000881
:1029A000F029000840000020A0080000880100086D
:1029B0000000000000000000000000000000000017
:1029C00000A24A040000000000000000010203040D
:1029D00006070809000000000000000000000000D9
:1029E00002000000000000000000000000000000E5
:0400000508000205E8
:00000001FF
